S0170000536F6C656E6F69642057696E6465722E7372656347
S113000013C02DC02CC02BC02AC029C028C027C0B3
S113001026C025C024C023C022C021C020C01FC0C8
S11300201EC01DC01CC01BC011241FBECFEFD2E0D8
S1130030DEBFCDBF11E0A0E0B1E0E4EFF2E002C02A
S113004005900D92A631B107D9F721E0A6E1B1E000
S113005001C01D92A631B207E1F704D149C1D0CF46
S1130060FC01718360835383428335832483DB01E2
S11300701C920480F581E02D8FEE80830895FC01AD
S1130080A081B1818C9180628C93A481B5818C9183
S113009080628C9300000190F081E02D80818F7D3F
S11300A0808300000895DC01ED91FC91119722E218
S11300B020831496ED91FC9115972FEF2083DFDFB9
S11300C008950F931F93CF938C01C62FDC01ED91FC
S11300D0FC911197862F82958F708062808314968D
S11300E0ED91FC9115978FEF8083C801C8DFD8018B
S11300F0ED91FC91CF70C062C083C801C0DFBCE049
S1130100BA95F1F70000CF911F910F9108950F93C5
S11301101F93CF938C01C62FDC01ED91FC911197B5
S1130120862F82958F70806A80831496ED91FC915E
S113013015978FEF8083C801A2DFD801ED91FC9160
S1130140CF70C06AC083C8019ADFCF911F910F910D
S1130150089561E0B6DF81EE94E00197F1F700C005
S1130160000008950F931F93CF938C01C62F9BDF3C
S11301706C2F6C706062C801A4DF6C2F63706460C4
S1130180C8019FDF6C2F70E075956795759567952D
S1130190759567957595679567706860C80191DF77
S11301A0CF911F910F910895FC0171836083538354
S11301B042833583248380EFD9018C930190F081AD
S11301C0E02D8FEF80830895CF92DF92EF92FF921C
S11301D00F931F93CF93DF93EC01E62EF72E6E5F00
S11301E07F4F40E150E0EE2DFF2D088119816F0112
S11301F08191869586959A0102C0220F331F8A95B4
S1130200E2F72095D8012C9389EF90E00197F1F75C
S113021000C000008A819B81DC012C9130E0D60172
S11302209C91937002C0359527959A95E2F720FD2D
S11302300CC081EE94E00197F1F700C00000EC914E
S1130240F0E0E050FF4F808104C0E617F70769F63D
S1130250CACFDF91CF911F910F91FF90EF90DF9064
S1130260CF900895CF93DF93CDB7DEB762970FB6E3
S1130270F894DEBF0FBECDBF85E085BD81E08093DD
S11302806E002AE230E049E250E06BE270E0CE0119
S11302900D96E6DE6AE4CE010D9664DFCE010D967E
S11302A058DF27E230E046E250E068E270E0CE0139
S11302B007967ADF16E0E0E1F1E0DE011196812F86
S11302C001900D928A95E1F7BE016F5F7F4FCE01D9
S11302D007967ADF682FCE010D9619DF2FE986E89D
S11302E091E0215080409040E1F700C00000E3CF4E
S10702F0F894FFCFAC
S11302F43132334134353642373839432A30234492
S1090304000102030405E0
S9030000FC
